:0200000460009A
:100000004643464200000156000000000103030081
:1000100000000000000000000000000000000000E0
:1000200000000000000000000000000000000000D0
:1000300000000000000000000000000000000000C0
:1000400000000000010408000000000000000000A3
:100050000000800000000000000000000000000020
:100060000000000000000000000000000000000090
:100070000000000000000000000000000000000080
:10008000EB04180A063204260000000000000000FD
:10009000050404240000000000000000000000002F
:1000A0000000000000000000000000000000000050
:1000B0000604000000000000000000000000000036
:1000C0000000000000000000000000000000000030
:1000D00020041808000000000000000000000000DC
:1000E0000000000000000000000000000000000010
:1000F0000000000000000000000000000000000000
:10010000D8041808000000000000000000000000F3
:100110000204180804200000000000000000000095
:1001200000000000000000000000000000000000CF
:10013000600400000000000000000000000000005B
:1001400000000000000000000000000000000000AF
:10015000000000000000000000000000000000009F
:10016000000000000000000000000000000000008F
:10017000000000000000000000000000000000007F
:10018000000000000000000000000000000000006F
:10019000000000000000000000000000000000005F
:1001A000000000000000000000000000000000004F
:1001B000000000000000000000000000000000003F
:1001C000000100000010000001000000000000001D
:1001D000000001000000000000000000000000001E
:1001E000000000000000000000000000000000000F
:1001F00000000000000000000000000000000000FF
:10020000FFFFFFFFFFFFFFFFFFFFFFFFFFFFFFFFFE
:10021000FFFFFFFFFFFFFFFFFFFFFFFFFFFFFFFFEE
:10100000D100204000180060000000000000000037
:1010100020100060001000600000000000000000D0
:0C1020000000006000001F000000000045
:10102C00FFFFFFFFFFFFFFFFFFFFFFFF7EFFFFFF45
:1014000000040020E9180060EB180060EB18006091
:10141000EB180060EB180060EB180060EB18006040
:10142000EB180060EB180060EB1800605B6E00606A
:10143000EB180060EB180060EB180060258200607C
:10144000EB180060EB180060EB180060EB18006010
:10145000EB180060EB180060EB180060EB18006000
:10146000EB180060EB180060EB180060EB180060F0
:10147000EB180060EB180060EB180060EB180060E0
:10148000EB180060EB180060EB180060EB180060D0
:10149000EB180060EB180060EB180060EB180060C0
:1014A000EB180060EB180060EB180060EB180060B0
:1014B000EB180060EB180060EB180060EB180060A0
:1014C000EB180060EB180060EB180060EB18006090
:1014D000EB180060EB180060EB180060EB18006080
:1014E000EB180060EB180060EB180060EB18006070
:1014F000EB180060EB180060EB180060EB18006060
:10150000EB180060EB180060EB180060EB1800604F
:10151000EB180060EB180060EB180060EB1800603F
:10152000EB180060EB180060EB180060EB1800602F
:10153000EB180060EB180060EB180060EB1800601F
:10154000EB180060EB180060EB180060EB1800600F
:10155000EB180060EB180060EB180060EB180060FF
:10156000EB180060EB180060EB180060EB180060EF
:10157000EB180060EB180060EB180060EB180060DF
:10158000EB180060EB180060EB180060EB180060CF
:10159000EB180060EB180060EB180060EB180060BF
:1015A000EB180060EB180060EB180060EB180060AF
:1015B000EB180060EB180060EB180060EB1800609F
:1015C000EB180060EB180060EB180060EB1800608F
:1015D000EB180060EB180060EB180060EB1800607F
:1015E000EB180060EB180060EB180060EB1800606F
:1015F000EB180060EB180060EB180060EB1800605F
:10160000EB18006021840060EB180060EB180060AC
:10161000EB180060EB180060EB180060EB1800603E
:10162000EB180060EB180060EB180060EB1800602E
:10163000EB180060EB180060EB180060EB1800601E
:10164000EB180060EB180060EB180060EB1800600E
:10165000EB180060EB180060EB180060EB180060FE
:10166000EB180060EB180060EB180060EB180060EE
:10167000EB180060EB180060EB180060EB180060DE
:10168000EB180060EB180060EB180060EB180060CE
:10169000EB180060EB180060EB180060EB180060BE
:1016A000EB180060EB180060EB180060EB180060AE
:1016B000EB180060EB180060EB180060EB1800609E
:1016C000000000000000000000000000000000001A
:1016D000000000000000000000000000000000000A
:1016E00000000000000000000000000000000000FA
:1016F00000000000000000000000000000000000EA
:1017000000000000000000000000000000000000D9
:1017100000000000000000000000000000000000C9
:1017200000000000000000000000000000000000B9
:1017300000000000000000000000000000000000A9
:101740000000000000000000000000000000000099
:101750000000000000000000000000000000000089
:101760000000000000000000000000000000000079
:101770000000000000000000000000000000000069
:101780000000000000000000000000000000000059
:101790000000000000000000000000000000000049
:1017A0000000000000000000000000000000000039
:1017B0000000000000000000000000000000000029
:1017C0000000000000000000000000000000000019
:1017D0000000000000000000000000000000000009
:1017E00000000000000000000000000000000000F9
:1017F00000000000000000000000000000000000E9
:0818000000102020717D006042
:1018100072B6264880F30888254880F30988254851
:1018200025490860022080F31488BFF36F8F05F00C
:10183000C1F804F0FDFF4FF0553020491B4A91429A
:101840003CBF41F8040BFAE71D49194A91423CBFDD
:1018500041F8040BFAE71B491B4A1C4B9A423EBF56
:1018600051F8040B42F8040BF8E700201849194A14
:1018700091423CBF41F8040BFAE705F0DBF805F0B4
:1018800077FE154C154DAC4203DA54F8041B88471B
:10189000F9E703F0C7FD124C124DAC4203DA54F8DD
:1018A000041B8847F9E705F0C3B8000000040020D6
:1018B000000C00200014006008ED00E00000002093
:1018C0000004002028A00060000C00203C0D002037
:1018D0000010002060220020081800600818006036
:1018E000081800600818006092E700F000F8FEE7B2
:1018F0002DE9F04FC1F80CD0D0F80CD0BDE8F08F36
:10190000002383F311882846A047002005F07CFAC5
:10191000FEE705F0D5F900DFFEE7000053B94AB94C
:10192000002908BF00281CBF4FF0FF314FF0FF30E7
:1019300000F074B9ADF1080C6DE904CE00F006F8C2
:10194000DDF804E0DDE9022304B070472DE9F0473B
:10195000089E04468846002B40F085808A42154642
:1019600048D9B2FA82F24AB1C2F1200701FA02F371
:1019700020FA07F7954047EA030894404FEA154ECE
:10198000230CB8FBFEF71FFA85FC0EFB178843EA11
:10199000084307FB0CF1994209D9EB1807F1FF3016
:1019A00080F0E380994240F2E080023F2B445B1AD2
:1019B000A4B2B3FBFEF00EFB103344EA034400FB79
:1019C0000CFCA44509D92C1900F1FF3380F0CB8021
:1019D000A44540F2C88002382C4440EA0740A4EBFA
:1019E0000C0400271EB1D4400023C6E90043394649
:1019F000BDE8F087002A53D0B2FA82F2002A40F004
:101A0000B680491B4FEA154E1FFA85F80127B1FB36
:101A1000FEFC230C0EFB1C1143EA014308FB0CF1F6
:101A2000994207D9EB180CF1FF3002D2994200F22B
:101A3000EC808446591AA3B2B1FBFEF00EFB1014E1
:101A400043EA044408FB00F8A04507D92C1900F12B
:101A5000FF3302D2A04500F2DC801846A4EB080454
:101A600040EA0C40BEE78B4208D9002E78D0002710
:101A7000C6E9000138463946BDE8F087B3FA83F776
:101A80007FB98B4202D3824200F2BD80841A61EB9F
:101A9000030301209846002EA9D0C6E90048A6E716
:101AA000FFDEC7F12005BB4022FA05FC4CEA030C1F
:101AB00001FA07F420FA05F821FA05F34FEA1C4E63
:101AC00048EA0404B3FBFEF9210C0EFB19331FFA9C
:101AD0008CF841EA034309FB08FA9A4502FA07F237
:101AE00000FA07F10BD91CEB030309F1FF3080F07A
:101AF00088809A4540F28580A9F102096344A3EBEE
:101B00000A03A4B2B3FBFEF00EFB103344EA034415
:101B100000FB08F8A04508D91CEB040400F1FF33D2
:101B20006BD2A04569D90238644440EA0940A4EB6D
:101B30000804A0FB02894C45C6464B4654D351D0FD
:101B4000002E69D0B1EB0E0264EB030404FA05F534
:101B500022FA07F3FC401D43C6E90054002746E77C
:101B60003746304643E7184637E707461FE7C2F1D6
:101B7000200320FA03F7954001FA02F021FA03F35B
:101B80004FEA154E3843010CB3FBFEF71FFA85F8F8
:101B90000EFB173341EA034107FB08F38B4204FABB
:101BA00002F407D9691807F1FF3C28D28B4226D9E5
:101BB000023F2944CB1A81B2B3FBFEF00EFB103377
:101BC00041EA034100FB08F38B4207D9691800F191
:101BD000FF3C10D28B420ED902382944C91A40EA80
:101BE000074714E74145ABD2B8EB020E69EB0C0294
:101BF00001381346A4E76046F0E7184695E76746C4
:101C0000D8E781467BE7384645E7ACF1020C2B4428
:101C100010E702382C4421E73746E8E6704700BF5A
:101C200008B5062000F046FE012005F0CFFC00BFFD
:101C300000B50A4C2668054685B01C46F06852B1CE
:101C4000074B0091CDE9013206492B46224600F0B0
:101C500021F8FFF7E5FF044B1A46F2E7000C0020DD
:101C6000A49F0060B49F0060B09F006008B5134659
:101C70000022FFF7DDFF00BF0CB400B583B004AB5A
:101C800053F8042B019300F03FFA03B05DF804EB26
:101C900002B070470EB410B583B005AB064C53F8D4
:101CA000042B01930146206800F02EFA03B0BDE832
:101CB000104003B0704700BF000C0020024B0146EB
:101CC000186800F07BB900BF000C0020024B0146F1
:101CD000186800F01DB900BF000C0020032A70B482
:101CE00012D940EA0105AD0704460B4620D119463A
:101CF000204653F8045B54F8046BAE4218D1043A02
:101D0000032A20461946F2D8541E72B103780A7885
:101D10009A4208BF241806D00CE010F8013F11F8D1
:101D2000012F934206D1A042F7D1002070BC70472A
:101D3000541EEBE7981A70BC704700BF844641EA16
:101D4000000313F003036DD1403A41D351F8043B33
:101D500040F8043B51F8043B40F8043B51F8043B85
:101D600040F8043B51F8043B40F8043B51F8043B75
:101D700040F8043B51F8043B40F8043B51F8043B65
:101D800040F8043B51F8043B40F8043B51F8043B55
:101D900040F8043B51F8043B40F8043B51F8043B45
:101DA00040F8043B51F8043B40F8043B51F8043B35
:101DB00040F8043B51F8043B40F8043B51F8043B25
:101DC00040F8043B51F8043B40F8043B403ABDD294
:101DD000303211D351F8043B40F8043B51F8043B36
:101DE00040F8043B51F8043B40F8043B51F8043BF5
:101DF00040F8043B103AEDD20C3205D351F8043BC5
:101E000040F8043B043AF9D2043208D0D2071CBF90
:101E100011F8013B00F8013B01D30B8803806046B9
:101E2000704700BF082A13D38B078DD010F003032F
:101E30008AD0C3F10403D21ADB071CBF11F8013B9F
:101E400000F8013B80D331F8023B20F8023B7BE7EE
:101E5000043AD9D3013A11F8013B00F8013BF9D219
:101E60000B7803704B7843708B78837060467047B3
:101E7000F0B4860746D0541E002A3CD0CAB20346AE
:101E800002E014F1FF3436D303F8012B9D07F8D19B
:101E9000032C29D9CDB245EA05250F2C45EA054585
:101EA00033D9A4F11006360903F1200707EB061712
:101EB00003F1100242E9045542E902551032BA42D8
:101EC000F8D1721C14F00C0F03EB021204F00F0691
:101ED00013D0331F23F003030433134442F8045B8D
:101EE0009342FBD106F003042CB1C9B21C4403F8A1
:101EF000011B9C42FBD1F0BC704734461346002CBA
:101F0000F3D1F8E714460346C2E71A462646E0E74F
:101F100000293CD038B551F8043C0C1F002BB8BF49
:101F2000E418054601F0C4FA234B1A682AB1A2420C
:101F30000DD921686018824223D0626028461C6057
:101F4000BDE8384001F0B6BAA34203D81A46536838
:101F5000002BF9D111685018A04219D024D821685B
:101F60006018834206D0636054602846BDE838405C
:101F700001F0A0BAD3E9000301446360216054601A
:101F8000F3E7D2E90002014462602160D6E77047BE
:101F900020680144501883421160E6D1D3E9000360
:101FA000014453601160E0E70C232B602846BDE834
:101FB000384001F07FBA00BF00100020F8B5CD1CFA
:101FC00025F0030508350C2D38BF0C25002D0646DD
:101FD00033DBA94231D82A4F01F06AFA3A6852B18C
:101FE00013685B1B04D43FE023685B1B29D52246A2
:101FF0005468002CF8D1796800293BD02946304636
:1020000005F0C9FA431C28D0C41C24F00304A042E4
:1020100005D0211A304605F0BEFA01301DD02560EA
:10202000304601F047FA04F10B0020F00700231DB1
:10203000C21A01D01B1AA350F8BD0C223260002036
:10204000F8BD0B2B05D8A242636811D05360E7E7B7
:10205000144623601C442560E2E70C2330463360BD
:1020600001F028FA0020F8BD0B2BF1D85368144674
:102070003B60D5E7304605F08EFA7860BEE700BFDA
:10208000001000209368013B002B93600FDA10B41E
:102090009469A34208DB0A2906D01368581C106013
:1020A0001970084610BC704710BC00F03BBC1368A8
:1020B000581C106019700846704700BF9BB1F8B5F6
:1020C00013440F4606465D1E541E01E0AC4208D084
:1020D0003A4614F8011F3046FFF7D4FF431CF5D1F0
:1020E000F8BD0020F8BD0020704700BF936810B510
:1020F000144613B95360184610BD00F0D3FE0023F8
:10210000C4E9013310BD00BF2DE9F04F9FB08B46ED
:1021100090461C46039018B18369002B00F0B780ED
:10212000A24B9B4500F0B980A14B9B4500F0C780B6
:10213000A04B9B4504BF039BD3F80CB0BBF80C30FD
:10214000180740F1B280DBF81030002B00F0AD80B2
:1021500030238DF8323098F8003005940021202289
:102160000B918DF83120944E0127002B00F08780D1
:10217000252B00F01581454603E0252B00F0A380B8
:1021800025466B786C1C002BF7D1B4EB080A76D08F
:102190004246534659460398FFF790FF01306ED0F0
:1021A0000B9B6A7853440B93002A68D000234FF0AE
:1021B000FF3201340693CDE908338DF85B301C9370
:1021C000079205E0069A07FA03F313432C46069399
:1021D0002546052215F8011B304601F0B1F8AA4644
:1021E000831B0028EED1069BD90644BF20228DF820
:1021F0005B2021781A0744BF2B228DF85B202A2907
:1022000066D1059A1168043200290592C0F29D80BA
:1022100009916178A51C2E2973D0684C03222046B1
:1022200001F08EF8002800F08680001B069B4024F9
:1022300004FA00F00343069305F101082978604889
:102240008DF83010062201F07BF8002800F0838022
:102250005C4B002B72D005AB00935A465A4B039847
:1022600006A9AFF300808146B9F1FF3F07D00B9B71
:102270004B440B9398F80030002B7FF479AFBBF8F8
:102280000C305B0618D40B981FB0BDE8F08F00F03F
:10229000E9FD464B9B457FF447AF039BD3F804B061
:1022A000BBF80C3018073FF54EAF5946039800F0C5
:1022B00099FB00283FF44CAF4FF0FF30E4E7039B5D
:1022C000D3F808B03AE7B4EB080A3FF46FAF5FE722
:1022D000A1F13002092A88BFA2469CD8099B01E0DF
:1022E0002C460135297803EB830302EB4303A1F16C
:1022F0003002092AAA46F3D92E2904F102050993CE
:102300008BD19AF801102A292FD1059B9AF8021037
:102310001A6807920433002A05930AF103050AF1AB
:10232000020338DB254C032220469A4601F008F8C8
:1023300000287FF47AAFA84655467FE7059B073310
:1023400023F007030833059391E7494243F0020362
:10235000099106935DE705AB00935A461A4B039823
:1023600006A900F0D5F881467EE7A1F130020023EE
:10237000092A079301D915E05546697803EB8303D1
:1023800002EB4303A1F13002092A05F1010AF3D956
:102390000235079341E74FF0FF329A4607923CE738
:1023A000444603E7AA46013537E700BF3C98006082
:1023B0001C980060FC970060E49F0060EC9F006048
:1023C000F09F006000000000BD20006010B4044CCD
:1023D00013460A460146206810BCFFF795BE00BFB1
:1023E000000C00202DE9F0470C4691460A698968E7
:1023F000DDF820808A42B8BF0A46C9F8002094F868
:10240000431006461F4611B10132C9F80020236867
:1024100099065CD5D9F800200232C9F8002023685B
:1024200013F0060F19461DD1E1688A1A002AD8BF99
:10243000194617DD04F1190A002505E0E368D9F80B
:1024400000209B1AAB420CDD012352463946304630
:10245000C047013005F10105F0D14FF0FF30BDE874
:10246000F087216894F84330003318BF01238A06AF
:102470000AD5E1185A1C302081F84300224494F810
:10248000451082F84310023304F1430239463046C6
:10249000C0470130E1D02368A268216903F0060338
:1024A000042B1DD08A4226DD4FF00009521A9144B8
:1024B0001A34002501E04D451DDA01232246394634
:1024C0003046C047013005F10105F4D1C5E713F0EE
:1024D000060F13D094F84330003318BF0123D3E71D
:1024E000D9F80000E3688A42A3EB000323EAE3790A
:1024F000DCDC002BDCDC0020BDE8F087E168D9F8EB
:1025000000208A1A002AD8BF194693DCAAE700BF28
:102510002DE9F0430C46097E85B06E290646174624
:102520000C98984604F1430E6DD039D9732900F008
:10253000F68044D9752900F00481782940F0118192
:1025400078232268DFF858C284F845300168150600
:1025500051F8043B016040F1A180D10744BF42F033
:1025600020022260002B00F093801022002184F8CA
:1025700043106068A0600028C0F2C880216821F084
:1025800004012160002B40F0A380002840F0C080AF
:102590007546082A00F0AC80AEEB0503236141E0EC
:1025A000632900F0E5801AD8002938D0582940F076
:1025B000D88084F845102268DFF8E8C1C6E76F29A3
:1025C00000F0BF80702940F0CC802268DFF8D0C1D5
:1025D00042F020027823226084F84530B6E764296F
:1025E00002D0692940F0BD8022680368110603F11A
:1025F000040557D5196805600B46002959DBDFF83B
:10260000A4C10A22B5E70368226861691D1D05603F
:1026100015061B6802D4500600F1BD801960002326
:1026200075462361CDF800803B4603AA214630461B
:10263000FFF7D8FE013020D02A46236939463046BC
:10264000C047013019D022680398E368920719D572
:102650001A1A002A16DD04F11909002504E0E368BE
:1026600003981A1AAA420DDD01234A46394630461C
:10267000C047013005F10105F1D14FF0FF3005B041
:10268000BDE8F0839842B8BF184605B0BDE8F083B6
:10269000226822F020022260102267E7500648BF1D
:1026A0009BB25AE75106A5D5B3F90030056019462B
:1026B000A3E76168A1602D200029C3F1000384F81D
:1026C000430002DB22F004022260DFF8D8C00A22B5
:1026D000754600E00B46B3FBF2F102FB113093426A
:1026E0001CF8000005F8010DF4D2082A7FF454AF5D
:1026F0002368DB077FF550AF626823699A423FF792
:102700004BAF302305F8013C013D45E7002BDFD1FD
:102710009CF8003084F8423004F1420539E7036840
:102720006268191D01601D680021284600F008FE3E
:10273000002832D0401B60602061002384F84330C1
:1027400070E72268036812F0800F03F104051AD0C5
:102750001B6805606F290CBF08220A22DFF844C0FD
:1027600004E7012384F84210236104F14205E4E701
:1027700003681A68191D0123016004F1420584F8F9
:1027800042202361D9E712F0400F0DBF1B6805609E
:102790001B880560DEE7198041E76068CCE700BF71
:1027A0000CA00060F89F006010B580210446FFF780
:1027B00005FC606440B1031F00227C3043F8042F05
:1027C0008342FBD1002010BD4FF0FF3010BD00BF91
:1027D000436C0BB100207047E6E700BF1F2970B5BE
:1027E000054608D8436C16460C464BB153F82400F6
:1027F00043F8246070BD162202604FF0FF3070BDB8
:10280000FFF7D2FF08B96B6CF0E74FF0FF3070BDF7
:102810001F2938B521D8426C05460C466AB152F8DA
:10282000213053B1012B16D0591C10D00025204661
:1028300042F824509847284638BD284600F070F8E2
:10284000224601462846BDE8384000F055B8162318
:102850000360012038BD002038BD162303604FF00F
:10286000FF3038BD1F2921D838B5436C05460C46CA
:1028700083B153F8242003EB84034AB1511C10D0D8
:10288000012A0CD0002520461D609047284638BDFF
:10289000012038BDFFF788FF28B96B6CE9E70320FA
:1028A00038BD022038BD4FF0FF3038BD4FF0FF304B
:1028B000704700BF024B01461868FFF7A9BF00BF71
:1028C000000C0020024B0A4601461868FFF786BF3D
:1028D000000C0020034B1868436C0BB100207047BC
:1028E00062E700BF000C0020024B01461868FFF7AA
:1028F000B9BF00BF000C002038B50B46074C054699
:10290000114618460023236004F068FE431C00D0E3
:1029100038BD2368002BFBD02B6038BD5C22002023
:1029200004F064BEF8B50D461446064608B1836946
:1029300043B3254B9C422AD0244B9C4229D0244BA4
:102940009C4208BFF468A389A269A2601A0722D535
:10295000236903B322686169D31AEDB299422F4605
:1029600029DD0133A168501C0139A1602060157078
:1029700062699A4216D0A389DB0701D50A2D11D0CE
:102980003846F8BD00F06EFA0F4B9C42D4D1746803
:10299000D9E7B468D7E72146304600F023F838B9C4
:1029A0002369D7E72146304600F032F90028E7D006
:1029B0004FF0FF37E4E72146304600F029F90028C0
:1029C000F6D122680123CDE73C9800601C98006096
:1029D000FC970060024B0A4601461868FFF7A2BF49
:1029E000000C00203B4B70B51D6806460C460DB12F
:1029F000AB69DBB1384B9C421ED0384B9C424AD06D
:102A0000374B9C4208BFEC68B4F90C2093B219070D
:102A100018D5206908B313F001022CD06369002295
:102A20005B42A361A26060B3002070BD284600F045
:102A300019FA294B9C42E0D16C68B4F90C2093B28E
:102A40001907E6D4DD063CD5580726D4206942F0A4
:102A50000803A3819BB20028DDD103F42072B2F5F4
:102A6000007FD8D03046214600F01EFCA3892069A3
:102A700013F00102D2D1990758BF6269A260002801
:102A8000D2D1B4F90C301A06CFD543F04003A3815C
:102A90004FF0FF3070BDAC68B6E7616B51B104F127
:102AA0004403994204D03046FFF732FAB4F90C20BF
:102AB0000023636300232069636022F02402206006
:102AC000C5E742F04002092333604FF0FF30A28196
:102AD00070BD00BF000C00203C9800601C98006096
:102AE000FC9700608B891A072DE9F0410C4680465F
:102AF00041D44A68002A59DDE66A002E53D00022EC
:102B0000D8F80050216AC8F8002013F4805251D13F
:102B100001234046B047431C5FD0A389E66A216A7F
:102B20005F0705D56268636B801A0BB1236CC01A0E
:102B3000024600234046B047461C45D1D8F8003035
:102B4000B4F90C20002B55D01D2B01D0162B5AD1D7
:102B500023690022C4E90032616BC8F8005011B348
:102B600004F14403994202D04046FFF7D1F9002016
:102B70006063BDE8F0810E69AEB10D680E60990723
:102B80000CBF63690023AD1BA3600AE02B463246ED
:102B9000A76A216A4046B8470028A5EB000506440D
:102BA0000ADD002DF2DC0020BDE8F0810A6C002A6D
:102BB000A2DCF8E7606DB3E7A38943F04003A3818B
:102BC0004FF0FF30BDE8F0812269A3892260002226
:102BD0006260DA04C0D56065BEE7D8F80030002B2B
:102BE0009BD01D2B0CD0162B0AD0A38943F0400399
:102BF000A381D9E72169C4E90013D304ACD5EAE77E
:102C0000C8F80050CFE742F04002A281CCE700BFF5
:102C10000B6923B310B5044682B008B18369BBB118
:102C2000104B994212D0104B994216D00F4B99423B
:102C300008BFE168B1F90C302BB1204602B0BDE805
:102C40001040FFF74FBF002002B010BD6168F1E7F0
:102C5000019100F007F90199E2E7A168EAE7002095
:102C6000704700BF3C9800601C980060FC970060B3
:102C700020B1054B01461868FFF7CABF034B044952
:102C8000186800F0B9BA00BF000C0020F897006087
:102C9000112C006000207047014900F0ADBA00BF60
:102CA000112C00600020704770B54A1E682505FB96
:102CB00002F50E4605F17401FFF780F9044640B1B4
:102CC00000210C30666005F168022160A060FFF70A
:102CD000CFF8204670BD00BF1E4B70B51D68AB69B4
:102CE000064643B34835D5E90134013B05D51EE01E
:102CF000013B5A1C04F1680419D0B4F90C20002AD5
:102D0000F6D10025144B6566C4E90055A560C4E9F9
:102D10000455A5612946E360082204F15C00FFF731
:102D2000A7F8C4E90D55C4E91255204670BD2C68BA
:102D30002CB12546D7E7284600F010F8D2E7042149
:102D40003046FFF7B1FF044628600028F1D10C237C
:102D50003360EAE7F89700600100FFFF2DE9F84FC4
:102D6000334B34491A68816290424FF00003C0E946
:102D70001233036504BF012383610546FFF7ACFFEF
:102D800068602846FFF7A8FFA8602846FFF7A4FF61
:102D90006E68E86000240423F3607466C6E90044AA
:102DA000B460C6E90444B461214606F15C0008221F
:102DB000FFF75EF8DFF888B0AF68DFF888A0DFF8CB
:102DC0008890DFF888801C4BC6F83080C6E9086B15
:102DD000C6E90AA92146FB6008227C66C7E90044CF
:102DE000BC60C7E90444BC6107F15C00FFF740F830
:102DF000EE68124BC7F83080C7E9087BC7E90AA91B
:102E00002146F3607466C6E90044B460C6E9044430
:102E1000B46106F15C000822FFF72AF80123C6E935
:102E2000086BC6E90AA9C6F83080AB61BDE8F88F27
:102E3000F8970060992C0060090001001200020060
:102E4000053500602D3500606D3500608D35006002
:102E5000024B0349186800F0CFB900BFF897006033
:102E6000112C0060836903B978E77047704700BF91
:102E7000704700BF704700BF704700BF024B034957
:102E8000186800F093B900BF000C0020952C00607A
:102E9000024B0349186800F089B900BF000C0020FC
:102EA000A52C00609368002B00F002812DE9F04F03
:102EB000B1F90C309BB20C46190783B0824690469C
:102EC00035D522699AB313F00202D8F800603DD0DC
:102ED0000027D4F828B0D4F820C0DFF8CC923D46C3
:102EE0004D452B463A4628BF4B4661465046D5B124
:102EF000D847002840F3D280D8F808301B1A07447E
:102F00002D1AC8F80830002B00F0B780D4F820C084
:102F1000D4F828B04D452B463A4628BF4B4661466B
:102F20005046002DE4D1D6E900750836D8E7214691
:102F30005046FFF757FD002840F03081B4F90C30BF
:102F4000D8F800609BB213F00202C1D113F001095E
:102F500040F0B080A76820684D46002D54D09A05F7
:102F600040F1BC80AF42BB4600F2E78013F4906FA3
:102F70002FD0D4E9041707EB4707A0EB010B07EBB1
:102F8000D777681C7F105844B8423A4684BF07463A
:102F90003A465B0540F1E98011465046FFF70EF8CE
:102FA000002800F0F5805A4621690190FEF7C6FE20
:102FB000A289019B22F4906242F08002A281A7EBD9
:102FC0000B0203EB0B00676123612060A2602F46B8
:102FD000AB465A46494600F003FAA2682368D21B62
:102FE0005B442F46A26023600025D8F80830DB1B25
:102FF000B944C8F80830002B3FD0B4F90C30A768AA
:1030000020689BB2002DAAD1D6E900950836A4E726
:103010000BF1080353E902679B460833002FF9D0F0
:103020003A460A21304600F08BF9002853D001308F
:10303000A0EB06094B46D4E904122068BB4228BF26
:103040003B46884203D9A5681544AB4219DC9A4235
:103050007DDC1346A56A216A32465046A847051E04
:103060001CDDB9EB05096BD00120D8F808305B1BDB
:103070002E447F1BC8F8083013BB002003B0BDE806
:10308000F08F31462A4600F0ABF923682B442360C9
:1030900021465046FFF7BCFD0028E2D0B4F90C30C1
:1030A00043F040034FF0FF30A38103B0BDE8F08F41
:1030B0000020704733469146104617464E469B46C1
:1030C000002FA5D00028B5D13A460A21304600F09D
:1030D00037F90028ABD17B1C9946ACE723698342C2
:1030E00015D36169A94212D82E4BA76A9D4294BF9D
:1030F0002B466FF000434A4693FBF1F3504601FB29
:1031000003F3216AB847071EC8DDED1B6DE7AF4228
:1031100028BF2F463A46494600F062F9A368226864
:10312000DB1B3A44A3602260002BEED121465046BF
:10313000FFF76EFD0028E8D0B0E72F46AB4648E722
:1031400021465046FFF764FD00288ED0A6E71A46B8
:103150003146019300F044F9019BA1682268C91A25
:103160001A44A16022601D467BE7504600F0A4F996
:10317000034600287FF423AF21695046FEF7C8FEBE
:10318000B4F90C300C2223F08003CAF8002087E742
:103190000C23CAF80030B4F90C3081E74FF0FF304F
:1031A0006CE700BFFEFFFF7F00FCFF7F2DE9F041D1
:1031B00010F148071BD088460026D7E90154013D8D
:1031C0000FD4A389012B05F1FF3506D9B4F90E30D0
:1031D0000133204601D0C04706436B1C04F168044C
:1031E000EFD13F68002FE8D13046BDE8F0813E4680
:1031F0003046BDE8F08100BF2DE9F84310F14807E3
:103200001FD0884606464FF00009D7E90154013D1A
:1032100011D4A389012B05F1FF3508D9B4F90E307B
:1032200001332146304602D0C04749EA00096B1CF1
:1032300004F16804EDD13F68002FE6D14846BDE8AF
:10324000F883B9464846BDE8F88300BF70B50C4620
:10325000B1F90E10002996B016461D4613DB6A46DA
:1032600004F0A6F900280EDB019A02F47042A2F5E0
:103270000052B2FA82F252094FF4806300202A60B1
:10328000336016B070BDA38900221B062A6004D5E6
:1032900040230020336016B070BD4FF480630020DF
:1032A000336016B070BD00BF8A8992070B4606D501
:1032B00001F1470201211A60C3E90421704770B58A
:1032C00082B001AB6A460C460646FFF7BFFF009985
:1032D00005463046FEF772FEB4F90C3070B116495F
:1032E000B162019A0099206043F08003A381C4E990
:1032F00004018AB92B43A38102B070BD9A05FBD4A7
:1033000023F0030304F1470243F002030121A381E8
:103310002260C4E90421EFE73046B4F90E1004F04E
:1033200053F910B9B4F90C30E4E7A38923F003038F
:1033300043F001031BB2DDE7992C006000000000A0
:1033400001F0FF01102A2BDB10F0070F08D010F856
:10335000013B013A8B422DD010F0070F42B3F6D15A
:10336000F0B441EA012141EA014122F007047FF073
:1033700000070023F0E80256083C85EA010586EACA
:10338000010685FA47F5A3FA87F586FA47F6A5FA06
:1033900087F68EB9EED1F0BC01F0FF0102F0070212
:1033A00032B110F8013B013A83EA010313B1F8D1BD
:1033B0000020704701387047002D06BF354603389E
:1033C000073815F0010F07D1013015F4807F02BFD7
:1033D000013015F4C03F0130F0BC0138704700BF28
:1033E0008842F0B40DD98B1883420AD9841832B1BF
:1033F000224613F8014D02F8014D9942F9D1F0BC73
:1034000070470F2A0ED80346541E002AF7D0013405
:103410000C44013B11F8012B03F8012FA142F9D113
:10342000F0BC704740EA01039B073BD1A2F11007B3
:103430003F0901F1200606EB071601F1100300F128
:10344000100453F8105C44F8105C53F80C5C44F81A
:103450000C5C53F8085C44F8085C53F8045C44F8CE
:10346000045C1033B34204F11004EAD17B1C1B014D
:1034700012F00C0F194402F00F05034415D0043D5F
:10348000AD0803EB850C1C1F0E4656F8047B44F870
:10349000047F6445F9D10135AD002B44294402F085
:1034A0000302B1E7541E0346B1E72A46ACE700BF6A
:1034B000704700BF704700BF09B3F8B51446CAB1E2
:1034C00006460D4600F066F8A04202D32F46384665
:1034D000F8BD21463046FEF771FD07460028F6D0BC
:1034E00022462946FEF72AFC30462946FEF710FD03
:1034F0003846F8BD2746FEF70BFD3846F8BD1146A5
:10350000FEF75CBD10B50C46B1F90E1004F038F8AA
:10351000002803DB636D0344636510BDA38923F4B6
:103520008053A38110BD00BF002070472DE9F041FA
:103530001646B1F90C201F46D3050C460546B1F9D5
:103540000E1009D422F48052A2813B46324628460E
:10355000BDE8F04104F01BB80022022304F015F886
:10356000B4F90C20B4F90E10ECE700BF10B50C460E
:10357000B1F90E1004F009F8A389421C0EBF23F420
:10358000805343F480536065A38110BDB1F90E10E0
:1035900003F0FFBF51F8043C181F002BBCBF0B58B1
:1035A000C018704710B5074C01F092FD2046062266
:1035B0000D2104F063FC204601220D21BDE81040DE
:1035C00004F04EBC00400042044B586842F6DF61F4
:1035D0005A68121A8A42FBD9704700BF001000E0F7
:1035E00002280DD80E290BD8062A09D8C1EBC10133
:1035F000692303FB00101044024B33F8100070479E
:10360000012070475C980060FFF7EABF0120704717
:1036100008B5FFF7FBFF08BD012070470120704788
:1036200008B5FFF7FBFF08BD704708B5FFF7FCFFC3
:1036300008BD000013B502AB03E903000F4B1B7874
:10364000B3B99DF80530009873B16AB100F0E0FDA0
:1036500004460146009800F0A9FD0099204602B0FA
:10366000BDE8104001F024BC00F0BAFD0446F4E7C8
:10367000009800F0CDFD0099F1E700BF0D1000208B
:10368000034610B400885C880A4640EA04409988E2
:1036900010BCFFF7CFBF10B501210446FFF7F0FFC4
:1036A0002146FFF7B5FF10BD10B500210446FFF716
:1036B000E7FF2146FFF7B9FF10BD0120704708B5AD
:1036C000FFF7FBFF08BD10B5044600F07BFC204669
:1036D000FFF7F5FF40F6C410BDE8104003F099BBBA
:1036E00008B50120FFF7EFFFBDE8084002F0E2BD9A
:1036F00008B50020FFF7E7FFBDE8084002F0E1BD94
:1037000038B501210546FFF7BBFF29460446FFF700
:1037100087FF08B9002038BD2946204602F046FB45
:103720000028F7D02946204601F092FF0028F1D06A
:103730002946204601F066FF0028EBD06B795BB18B
:1037400047F603439C421DD00AD8B4F5F84F16D073
:1037500047F601439C4217D02846FFF75DFFDAE7A2
:1037600047F65B439C4215D047F65C439C420ED023
:1037700047F65A439C42EFD101F04EF9ECE7FFF7D0
:10378000AFFFC7E701F04EF9FFF7B2FFC2E701F064
:1037900037F9E1E701F043F9DEE708B502F0F1FCA3
:1037A000BDE8084000F07CB808B500F07EF8BDE840
:1037B000084002F0EBBC704701207047C04310B5D1
:1037C000C4B214F0010218BF01221A214FF0844044
:1037D00004F046FB14F0020218BF01220C210B4832
:1037E00004F03EFB14F0040218BF012219214FF02F
:1037F000844004F035FB14F0080218BF01221821A0
:103800004FF08440BDE8104004F02ABB0040004265
:1038100038B50546FFF7D0FF044610B12846FFF73C
:10382000CDFF204638BD000010B50622174C1A21E6
:103830004FF0844004F022FB01221A214FF0844013
:1038400004F00EFB204606220C2104F017FB204654
:1038500001220C2104F004FB062219214FF08440C0
:1038600004F00CFB012219214FF0844004F0F8FA17
:10387000062218214FF0844004F000FB0122182199
:103880004FF08440BDE8104004F0EABA0040004226
:1038900010B50446FFF78FFF2046FFF7B9FF10BDB4
:1038A00008B50020FFF7F4FF08BD08B502F0D2FA12
:1038B000FFF7EEFF08BD000010B502F0CBFA074B92
:1038C0001A788242044607D0187002F0B1FC044B0B
:1038D00018602046FFF7DCFF10BD00BF0C10002071
:1038E000081000201FB56C4684E803009DF80530E1
:1038F0000BB100F085FF0023ADF80E3094E8030013
:1039000011F0FF0F0290ADF80C1002AC05D194E855
:10391000030000F0CFFE04B010BD2046FFF7BBFE51
:103920000028F4D1F7E70379012B02D1008800F0D9
:1039300091BC704708B529B101F0EEFFBDE8084021
:1039400002F0CCB802F054F8F8E7000010B50446D5
:10395000002875D0822813D102F084FA81076FD431
:10396000392002F06DFB00F0E3FF4FF4487003F0E4
:1039700050FA392002F07EFBBDE8104000F0D8BFBD
:1039800083280ED102F06EFAC20759D4532002F0F8
:1039900057FB00F0CDFF4FF47A7003F03AFA532052
:1039A000E8E784280ED102F05DFA430748D44720A7
:1039B00002F046FB00F0BCFF4FF47A7003F029FAE6
:1039C0004720D7E7031FDBB2A02B0BD802F0C8FAC1
:1039D00020B1204602F04EFB00F0AAFF204602F084
:1039E0002FFBC9E700F12003DBB2072B07D800F05B
:1039F00007040120A040C0B200F0DCFEBCE700F1EB
:103A00005B03DBB2022B05D80E4ABDE81040D05C48
:103A100002F048BA00F15803DBB21A2B06D80A4A62
:103A2000BDE8104032F8130002F058BA3334E4B263
:103A3000122C05D801F070FFBDE8104002F04EB81E
:103A400010BD00BFD29A0060D69A006008B5034648
:103A500000285AD082280FD102F004FA810754D5E9
:103A6000392002F0EDFA00F063FF392002F002FB8A
:103A7000BDE8084000F05CBF83280AD102F0F2F9EB
:103A8000C20742D5532002F0DBFA00F051FF532069
:103A9000ECE784280AD102F0E5F9430735D5472041
:103AA00002F0CEFA00F044FF4720DFE7021FD2B257
:103AB000A02ADBD900F12002D2B2072A07D800F0F1
:103AC000070301209840C0B200F07CFED0E700F16F
:103AD0005B02D2B2022A04D80020BDE8084002F0FE
:103AE000E1B900F15802D2B21A2A04D80020BDE888
:103AF000084002F0F3B93333DBB2122B05D801F0E2
:103B000077FFBDE8084001F0E9BF08BD70B50C467D
:103B10000546FFF71BFF8CB142F2107640F2E7300A
:103B200000214FF47A720023E4FB0601FDF7F6FE54
:103B300003F06FF92846FFF789FF70BD0120F7E712
:103B400008B539280CBF50210021FFF7DFFF08BD61
:103B500008B528B100F02EFEBDE8084000F0E8BE30
:103B600008BD08B528B100F02DFEBDE8084000F002
:103B7000DFBE08BD2DE9F0478679447980460D46C1
:103B800000F008FE3609074608B32746FCB1C5F326
:103B9000072303F0F002402A0CD0E9B201F1200221
:103BA000D2B2072A25D903F0E003202B02D1012944
:103BB0001FD906B3AF4B5F7817F0040707D0022078
:103BC00000F0EEFE00F0E6FD80F00100C7B2C5F3A4
:103BD00003330B2B43D8DFE813F010001000630011
:103BE0006300C300D90042004200DE003C014F01E7
:103BF0004F010027EBE73746E9E7C5F30723C5F395
:103C0000032613F0F00F18BF36015FFA85F994B15F
:103C100066B109F12003DBB2072B304602D9B9F1B6
:103C2000000F05D100F0C6FD00F082FE48465CE0C2
:103C300000F0D6FDF8E74846FFF708FF7EB109F12E
:103C40002003DBB2072B304602D9B9F1000F02D1B5
:103C500000F0B8FD01E000F0CBFD00F069FEC5F317
:103C60000335083D032D03D802F0F4F8FFF710FEEA
:103C7000002F00F05A8100F085FD10F0010040F0A7
:103C8000548188F8050000F077FD00F025FA4046E1
:103C900000F062F900F070FDBDE8F04700F028BACE
:103CA000C5F3072303F0F003C5F30329202B5FFAC4
:103CB00085FA18BF4FEA0919BAF1000F07D0BAF117
:103CC000010F35D0002C3DD0E6B150460DE0694BD8
:103CD0005B78590714D45CB1B9F1000F04D04846A1
:103CE00000F068FD00F024FE0020FFF72FFEB6E78D
:103CF0002046FFF7ABFEB9F1000FB0D04846A7E76A
:103D000054B11EB94846FFF723FFA8E7012EA6D1FC
:103D1000484600F095FDA2E7002EA0D14846FFF7E7
:103D200020FF484600F09AFD484600F075FD96E7F2
:103D300014B1052E93D8E5E7042E90D84846FFF736
:103D400010FF8CE7002EF9D0BAF1390F0CBF4FF4F9
:103D50004870012003F05DF85046FFF777FE7EE7DC
:103D6000C5F3812343B1012B7FF479AF64B1C5F36F
:103D7000090002F0B3F872E724B1C5F3090002F0BC
:103D800091F86CE72046FAE72046F2E72146E8B2D0
:103D9000FFF7D0FD63E715F4407F29D1002C7FF4B5
:103DA0005EAFEA06C5F3421148BF0F244FEA810116
:103DB00048BF8C4005F00F0048BFE44300FA01F013
:103DC000C5F3812348BFA4B280B2022B40EA0400AD
:103DD00008D00AD8012B02D000F056F93FE700F0D6
:103DE0004BF93CE700F058F939E700F042F936E7C3
:103DF000C5F30122D3B20CB302F00103002B3FF450
:103E00002EAFC5F34210820015F010001CBF0F202A
:103E1000904005F00F0318BFC04303FA02F3C5F347
:103E2000812218BF80B29BB2022A40EA03000AD066
:103E30000CD8012A04D000F07BF910E75B08DDE71D
:103E400000F06EF90BE700F07BF908E700F032F9BB
:103E500005E75FFA85F9C5F303261CB1304600F08B
:103E60003BF94FE74846FFF77CFE304600F040F94B
:103E7000F5E600BF002100205FFA85F9A9F1F00303
:103E8000042B3DD8DFE803F003220E151E003CB1E1
:103E9000042E3FF6E4AEC5F3042000F035F9DEE66B
:103EA000052EF6E7C5F30420002CDFD100F014F94D
:103EB000D5E624B1C5F3042000F007F9CFE600F001
:103EC00001F9CCE61A4B5B785B0704D4C5F30420F8
:103ED000002CCBD0EAE74CB1C5F30424204600F017
:103EE000FBF80321204600F039FDB8E6012000F080
:103EF00057FD012E7FF6B3AE022000F051FDAEE675
:103F00002CB1002E7FF492AEC5F30420CEE74EB163
:103F1000B9F1390F0CBF4FF44870012002F079FF5E
:103F200048461AE7C5F30420A0E7BDE8F08700BFC4
:103F30000021002038B501880446407900F096F948
:103F4000054600F005F900F093F829462046BDE843
:103F50003840FFF70FBE0000037910B50446B3B137
:103F6000FFF7CEFB68B900F015FC80B1637973B13F
:103F7000074B5B785B070AD50220BDE8104000F0D4
:103F80000FBD2046FFF7D6FF2046FFF78DFB10BD83
:103F90000021002008B5002001F084FF002001F07E
:103FA0009DFF00F02DFC00F0C3FC01F0B3FDBDE867
:103FB000084001F093BD08B502F076F8BDE808406E
:103FC000FFF7E8BF08B500F005FCBDE80840FFF7C3
:103FD000F2BFC0F303320E3202F00F02092A10B50D
:103FE000C4B21BD8012101FA02F340F2033213429A
:103FF00003D113F010000DD110BDF02C10D004D857
:10400000E72C8CBF00200120F6E7F42C14BF002021
:104010000120F1E7E72C03D9F12CF7E70020EBE7CB
:104020000846E9E708B5037933B1008800F012F9D2
:10403000BDE80840FFF7CDBF184608BD82B002AB0F
:1040400003E9030002B0704782B002AB03E903004A
:1040500002B07047704708B5FFF7FCFF08BD0000CD
:1040600008B5FFF7F8FF014B188008BD0E100020BF
:104070007047FFF7F5BF0000024B1B881843FFF79E
:10408000EFBF00BF0E100020024B1B881840FFF747
:10409000E7BF00BF0E100020024B1B885840FFF7FF
:1040A000DFBF00BF0E100020704708B5FFF7FCFF10
:1040B00008BD000008B5FFF7F8FF014B188008BDE8
:1040C000101000200020FFF7F5BF012303FA00F0D5
:1040D00080B2FFF7EFBF0000012303FA00F0034BAB
:1040E0001B88184380B2FFF7E5BF00BF1010002007
:1040F000012303FA00F0034B1B8823EA0000FFF7BB
:10410000D9BF00BF10100020012303FA00F0034BB9
:104110001B88584080B2FFF7CDBF00BF10100020B1
:10412000024B1B881843FFF7C5BF00BF10100020CB
:10413000024B1B881840FFF7BDBF00BF10100020C6
:10414000024B1B885840FFF7B5BF00BF101000207E
:10415000704701F0070330B5C908012402EB810262
:104160009C40E4B2013A002112F8015F20FA01F309
:1041700043F300036B40234001316B40042913706B
:10418000F2D130BD10B5002200F00704C00801EBE9
:10419000800110468B5CE34003F001039340013241
:1041A0001843042AC0B2F5D110BD000082B00B46FE
:1041B000ADF80400C0F307200E280CD89DF80410B9
:1041C000062908D8C0EBC0000144044A89B2184649
:1041D00002B0FFF7BEBF02B0704700BF1210002050
:1041E00082B0ADF80400C0F307200E280BD89DF86C
:1041F0000430062B07D8C0EBC0001844034980B236
:1042000002B0FFF7BFBF002002B0704712100020BD
:104210000E4B73B51E880E4BADF804001B880F249F
:104220001E4346FA04F3DB07E5B206D414F1FF346B
:10423000F7D20025284602B070BD0199284600F04B
:1042400048FE80B20128F1D0F4E700BF1010002032
:104250000E10002007B5ADF804000198FFF7D8FF55
:10426000019903B05DF804EB00F033BE13B5104BB9
:10427000ADF804101B782BB1019802B0BDE81040D6
:10428000FFF7E8BF70B10198FFF7C2FF044601468F
:104290000198FFF78BFF0199204602B0BDE810405E
:1042A00000F017BE0198FFF79BFF0446F3E700BF3D
:1042B0000D100020F8B50C4B0C4E1C780C4D3378CB
:1042C000A34200D1F8BD05EBC40335F834005F8884
:1042D0009A88D98840EA074042EA01410134FFF751
:1042E000B3FE04F00704EAE79310002092100020C8
:1042F00052100020064B10B418885C889A88D98820
:1043000040EA044042EA014110BCFFF79DBE00BFF5
:104310004A100020F8B51B4B9A7912F0F00F0AD121
:104320005A7942B1184A194912780D781E885F8867
:10433000174CAA4200D1F8BD11B204EBC1000079BC
:10434000E0B134F83110B14218D104EBC200417928
:10435000A1B94188C91B89B2C7290FD8997901220F
:1043600062F307119971837962F30713837105482A
:10437000FFF7F2FDBDE8F840FFF79CBF013202F005
:104380000702D6E74A100020931000209210002068
:104390005210002070B50D4B0D4A1B7815780D4C4E
:1043A000AB4202D10022104670BD04EBC302567826
:1043B0008E4206D114F83360864202D15279002A27
:1043C000F1D1013303F00703EAE700BF93100020A7
:1043D00092100020521000202DE9F04F89B002AB5E
:1043E0000446014606221846B14DFDF7A7FC29797F
:1043F000227967790346A846C1B9AAB18FB1204690
:10440000FFF710FE064660B1082221462846FDF758
:1044100095FC2846FFF787FAFFF77CFFFFF76AFF56
:1044200065E02046FFF798FD012660E0B4F802A0A1
:1044300068886E7994F800B094F80190AAEB0000B7
:1044400080B2002E00F0E780C72800F29780002A93
:104450004DD0AB792A88208813F0F00F58D19042C4
:104460000ED1002F4DD1012262F30713AB71FFF77C
:1044700041FF2846FFF770FDAB79A371002636E0B7
:10448000002F3ED149465846FFF784FF5846FFF7B4
:1044900081FF05460028F1D18DF808B08DF809900C
:1044A0000298FFF7D7FEC0F303310B2912D801227F
:1044B0008A4012F4406FC3B21DD112F00C0F0ED11E
:1044C000910707D010F4706F00D07BB12033DBB2BE
:1044D000072B0BD92046FFF73FFD354606E010F4C9
:1044E000706FF3D0A27912F0F00FEFD12E46304664
:1044F00009B0BDE8F08FEF2BF8D90F33DBB2022BF8
:10450000E7E798F8063043F0010388F80630B5E78E
:1045100090420AD14FB92046A371FFF71DFD082232
:1045200021462846FDF70AFC78E72046FFF77AFD8A
:1045300000283FF476AF002F3FF473AF98F80630B1
:104540001F2B11D9B8F80020ADF8102098F80420DE
:104550008DF814200022ADF812A08DF815208DF8EA
:10456000163004A8FFF7F8FC082221465048FDF752
:10457000E5FBFFF7CFFEFFF7BDFE55E7A87910F08A
:10458000F001019118D18DF80C208DF808B08DF84C
:104590000990ADF80AA08DF80D7093E80300FFF7BD
:1045A0004DFD2846FFF7D8FC082201992846FDF763
:1045B0005FFCFFF79FFE61E7002A98D02A882388D6
:1045C0009A420AD14FB9A0712046FFF7C5FC0822D4
:1045D00039462846FDF74CFC89E72046FFF722FDC7
:1045E00000283FF41EAF002F3FF41BAF98F80630B1
:1045F0001F2BB9D9B8F80020ADF8182098F804207E
:104600008DF81C200022ADF81AA08DF81D208DF821
:104610001E3006A8A6E7C72835D8002A3FF404AF05
:104620003E46002F3FF4FDAE2A8823889A421CD1D3
:10463000AB79DA0713D413F0F00210D0F02AA3718B
:1046400006D0DBB2C3F30312013262F30713A37186
:104650002046FFF781FC08222146154862E7082220
:1046600021461348FDF76AFB41E72046FFF7DAFCD5
:1046700000287FF479AFAB79204643F00103AB719A
:10468000FFF76AFC33E78DF80C208DF808B08DF841
:104690000990ADF80AA08DF80D7093E80300FFF7BC
:1046A000CDFC082231462846FDF7E2FBB6E600BF06
:1046B0004A100020F0B585B06C4684E8030020461F
:1046C000FFF78AFE284E294D074668B19DF8043051
:1046D0001BB194E80300FFF7B7FC254C287833782A
:1046E000834226D105B0F0BD94E803009DF8042074
:1046F00002AB83E80300002AEFD030782A78441C0C
:1047000004F0070494420AD01946194B082203EB1F
:10471000C000FDF713FB3470FFF7CCFDDDE7FFF7BA
:1047200051FC08223946134837702F70FDF7A0FB63
:10473000D3E704EBC000FFF74FFE0028D2D02B7860
:1047400034F8330004EBC3035F889A88D98840EAC1
:10475000074042EA0141FFF777FC2B78013303F071
:1047600007032B70BAE700BF9210002093100020BF
:10477000521000204A100020014B1878C0087047E2
:10478000E4100020024B187800F00700704700BFCB
:10479000E4100020034B187810F0070018BF012028
:1047A000704700BFE4100020014B1878704700BF2D
:1047B000E7100020024A137818431070704700BFBA
:1047C000E7100020024A137823EA000010707047B7
:1047D000E7100020014B00221A707047E7100020FC
:1047E000024A137818431070704700BFE810002089
:1047F000024A137823EA000010707047E810002086
:10480000014B00221A707047E8100020704708B56D
:10481000FFF7FCFF08BD000008B5054A1378034206
:1048200004D023EA00001070FFF7F1FF08BD00BFBD
:10483000E5100020704708B5FFF7FCFF08BD000039
:1048400008B5054A137830EA030C03D0034313700C
:10485000FFF7F1FF08BD00BFE610002008B5054ACC
:104860001378034204D023EA00001070FFF7E3FF3F
:1048700008BD00BFE610002008B5044B1A781AB135
:1048800000201870FFF7D7FF08BD00BFE61000201A
:1048900010B5084B1C78084B1B781C43074B1B7842
:1048A0002BB11C4301F036FB08B1FFF7E5FF2046B2
:1048B00010BD00BFE7100020E8100020E610002027
:1048C00038B50B4C2568FFF7E3FF287024680949C9
:1048D00008222046FDF702FA48B121460822054881
:1048E000FDF72CFA2046BDE8384001F0BFBA38BDCC
:1048F000640C0020BC10002038B50B4C2568FFF775
:10490000C7FF68702468094920222046FDF7E6F9B0
:1049100048B1214620220548FDF710FA2046BDE89F
:10492000384001F0ABBA38BD680C0020C41000203C
:10493000054B1B7833B1054B93F90030002B01DA9E
:10494000FFF7DABFFFF7BCBF780C00200021002082
:10495000704708B5FFF7FCFF08BD0000094A527810
:10496000520710B50AD5084C41EAC0012170FFF783
:10497000B3FB2078C008FFF7ECFF10BDBDE8104086
:10498000FFF7AABB00210020E410002008B5034B6C
:1049900000201870FFF7DDFF08BD00BFE410002005
:1049A00008B50A4A137823EA0000107042070CD1B8
:1049B00098420AD0064B5B785B0706D5C008FFF724
:1049C00097FBBDE80840FFF7E1BF08BDE4100020F9
:1049D00000210020094A08B55378C3F380018142C1
:1049E0000AD060F382035370108800F038F8022078
:1049F000BDE80840FFF7D4BF08BD00BF002100207C
:104A0000044B5878C0F3800080F0010000F00100F2
:104A1000FFF7E0BF002100200120FFF7DBBF0020EF
:104A2000FFF7D8BF08B500F09DFD4FF6FF710020DD
:104A3000BDE8084000F07ABD08B5002000F00FFD89
:104A40004FF6E663C31A5842584108BD022000F0F1
:104A5000F7BC032000F0F4BC042000F000BD0146C8
:104A6000042000F063BD01460F2000F06DBD01463B
:104A7000132000F069BD0020FFF7F9BF08B5002042
:104A8000FFF7F1FFFFF7F7FF08BD000007B500F0E3
:104A900069FD4FF6E661002000F048FD002102208C
:104AA00000F036FD1C4B01210320198000F030FD81
:104AB0004FF4A051042000F039FD0021062000F041
:104AC00027FD0021072000F023FD0021082000F031
:104AD0003BFD0021242000F01BFD0021172000F0E9
:104AE00017FD00210C2000F013FD00210D2000F027
:104AF0000FFD00230022CDE900236846082218217B
:104B000000F0ECFC0021202000F01EFDFFF7B6FFB6
:104B100003B05DF804FB00BF0E100020FFF7B6BF26
:104B200001460E2000F0F4BC73B50C4C01F0B6FB4E
:104B30002388834205460ED00026ADF8006001F0C0
:104B4000ADFBADF80460ADF8020002AB13E9030061
:104B5000FEF7C8FE258002B070BD00BFF410002033
:104B600008B501F065FB024B1860024B186008BDE8
:104B7000EC100020F01000207047704708B5FFF7D8
:104B8000FCFF08BD704708B5FFF7FCFF08BD01201A
:104B90007047000008B5054800F094FA00F0EAFC00
:104BA000FFF7EAFFFFF7EAFF08BD00BFBD50006056
:104BB0000120704708B5FFF7FBFF08BD704770473D
:104BC00008B5FFF7FBFFFFF7FAFF08BD08B5FFF7D1
:104BD00033FF08B9FFF7A2FFFFF738FF094B187042
:104BE000FFF73AFF084B188000F008FDFFF731FF90
:104BF00080B2FFF73EFA054B1888BDE80840FFF782
:104C000054BA00BF05110020002100201010002020
:104C100008B501F00BFB00F0EBFAFFF7D7FFFEF74A
:104C200003FEFFF7B0FF08BD2DE9F04F85B0FFF799
:104C3000AEFF40B9FFF778FF00F094FF05B0BDE884
:104C4000F04FFEF739BE2B4F00F0ECFA3E46002441
:104C500020460134E4B216F8015B00F03FFA0F2C55
:104C600045D08542F4D0244B1B789B0701D500F03A
:104C70003BFAFFF79FFF002600904FF0010B5FFA11
:104C800086F8404600F02AFA17F8012B9042824637
:104C900027D00024012542400DF10809154218D003
:104CA000009BB3B101928DF808408DF8098001F0A6
:104CB000F5FA1AEA050F14BF01210021ADF80A0028
:104CC0008DF80CB08DF80D1099E80300FEF70AFE80
:104CD000019A0134E4B26D00072CEDB2DED107F881
:104CE00001AC01360F2ECAD1FFF73AFFA4E7854287
:104CF000B9D19FE7F61000200511002038B500F06B
:104D0000F3F8B0F5A04F044622D2B0F5804F77D229
:104D1000DF2812D8CD2861D2A7280AD8A5284ED2DC
:104D2000012804D003B233B1032898BF00242046E1
:104D300038BDC2284AD90024F9E7B0F5005F80F0F9
:104D4000A280B0F5807F4DD2E82828BF0024EEE78E
:104D500045F25F23984216D845F2402398425FD22D
:104D600045F21F23984254D8B0F5A44F7CD3C4B267
:104D7000A008012304F0030403FA04F444EA4014F5
:104D800044F40D442CE045F29F23984207D8B0F537
:104D9000A54F52D300F01F044AF2F4003DE045F263
:104DA000BF23984256D945F2DF239842C3D8040264
:104DB00004F4F85444F4204444F0F004B7E75B34BE
:104DC000E4B2394B1C5D44F48044B0E75834E4B29B
:104DD000364B33F8144044F48844A8E740F4A04428
:104DE000A4B2A4E7C0F3072000F006F90546E0B23C
:104DF00000F07AF82D0205F4F855284384B296E7BE
:104E0000C0B200F071F804F47064044344F4204428
:104E1000E6E700F01F044AF2F10040EA042486E7C6
:104E2000C4B2C4F38200012304F0030403FA04F4BF
:104E300044EA401444F40C44D2E7C4B2C4F3820000
:104E4000012304F0030403FA04F444EA401444F494
:104E50000A44C5E700F01F0000F0CEF8040204F495
:104E6000F85444F4005462E700F01F0000F0C4F866
:104E7000C306C4F3431448BF0001240200B2044334
:104E800044F41044ACE7C0F3042000F0B5F8054644
:104E9000E0B200F029F82D0205F4F85545EA0004C7
:104EA00044F400549CE700BF0C9B0060109B006022
:104EB00082B0ADF80410C1F307210E2906D89DF881
:104EC0000420062A02D802B0FEF79EBB002002B0E2
:104ED000704707B5ADF804100199FFF7E9FF03B07B
:104EE0005DF804EBFFF70ABF822825D00CD83128E3
:104EF00067D004D829285AD02A2869D07047352885
:104F000050D0392818D07047E32833D004D8E0288F
:104F10001CD0E22829D07047E62835D0E72838D0C1
:104F2000E42835D1334B5A78910731D51B7813F0EB
:104F3000100F08BFE72015E02E4B1A78920752D1C8
:104F40005B7813F0080F18BF29207047294A13789F
:104F5000D90744D4527812F0010F19D013F0100F72
:104F600008BFE32018BF00207047224B1B7813F0C6
:104F7000040FF2E71F4A1378590732D45278D20748
:104F800031D413F0100FEDE71A4B1B781A07CED46B
:104F90007047184A1378190727D452789107F0D52B
:104FA000E4207047134B1B7813F0200FCBE7114B15
:104FB0001A7892061BD45B7813F0080F18BF3920BB
:104FC00070470C4B1B7813F0400F18BF2A20704716
:104FD000084B1B7813F0400F18BF31207047392061
:104FE0007047E2207047E0207047E6207047352088
:104FF000CEE700BF0021002010B52F4C21784B07D1
:1050000013D500F01402A2F1040C00F01803DCF137
:10501000000242EB0C02A3F1080CDCF1000343EBAD
:105020000C039A4218BF80F00C000B0713D500F058
:105030001402A2F1140C00F01803DCF1000242EBA0
:105040000C02A3F1180CDCF1000343EB0C039A42B1
:1050500018BF80F00C006478E30713D500F011024C
:1050600002F1FF3C00F01803DCF1000242EB0C02FD
:10507000A3F1080CDCF1000343EB0C039A4218BFC8
:1050800080F00900A30711D500F0110200F0180309
:10509000A2F111046242A3F1180C6241DCF1000399
:1050A00043EB0C039A4218BF80F00900CB0648BFBF
:1050B00000F0E70010BD00BF002100200020704775
:1050C00000207047014B1860704700BF6C0C002037
:1050D0007047704708B5FFF7FCFF08BD014B185C2F
:1050E000704700BF112100207047704708B530237A
:1050F00083F31188C1B220F47F60032220F00F00F7
:1051000002F0BCFE002383F3118808BD38B50C4DB6
:105110000F2455F8040B421C01D0FFF7E7FF013CB8
:1051200014F0FF04F5D1074D072455F8040B431C78
:1051300001D0FFF7DBFF013C14F0FF04F5D138BDCF
:10514000649B0060489B00602DE9F84F254F57F89D
:1051500021400E46611C804638D0302383F31188ED
:10516000DFF884A004EA0A05E4B2214628460622B4
:1051700002F084FE21460022284602F071FE00243F
:1051800084F31188FFF7B1FFDFF860B007254FF017
:1051900001095BF8040B421C1AD10023013D1C439A
:1051A0004FEA490915F0FF05E4B25FFA89F9F0D139
:1051B00057F82600431C01D0FFF798FF211C18BFA9
:1051C00001213046FEF700FA08F80640BDE8F88FE6
:1051D000C1B200EA0A0002F039FE0028DDD14FFA20
:1051E00089F3DBE7649B006000F0FFFF489B0060F1
:1051F00010B50F24FFF78AFF224600210748FCF76D
:1052000037FE224600210648FCF732FE204600F019
:1052100037F8BDE81040FEF7C5B900BF11210020E6
:105220000221002030B585B00F2200216846FCF72E
:105230001FFE0024E1B268460134FFF785FF0F2C02
:10524000F8D1224669460C48FCF748FD002814BFF7
:105250000125002504D0224669460748FCF76EFD6B
:105260002B460F220549044800F024F80446FFF7B6
:1052700031FF204605B030BD022100201121002061
:1052800010B50446C0EBC000FCF718FD084B1860D1
:10529000002307301946DAB2944200D810BDC21F6D
:1052A00002F8011B8242FBD101330730F3E700BF54
:1052B000081100202DE9F04F85B0984600924B4A26
:1052C0000390002313704A4B02911D7801929B4674
:1052D000484F002D59D000F0ABFF474A13681060CB
:1052E000C31AFF2B05D82BB9B8F1000F5AD1A84625
:1052F0004EE0FF23D8B2414B1A6800218BF8001012
:105300003970013A8C460B468E468946009CCEB2D7
:10531000B4420BD8BEF1000F02D001228BF800205E
:10532000BCF1000FE0D0334A1370DDE702F1070A49
:1053300012F8016F4EB1B04231BF361A82F80090B8
:10534000AC462B463CBF1670AE465245F0D10131FB
:10535000DCE7039A4D78D75C87EA050202920022C7
:1053600009FA02F6029FF6B2374207D0A75C2FB9BE
:10537000012004F802A07540864684460132072ABF
:10538000EED101F8015F01331CE0B8F1000F05D147
:10539000184B1B7823B3B8F1000F03D100F048FF7E
:1053A000154B1860154A9BF800C0D2F80080019A8E
:1053B0001078029A00233B70511E9E464FF001095F
:1053C0004FF0140A009DDAB2C3EBC3049542444483
:1053D000BFD8BEF1000F03D0044B8BF800C018708B
:1053E000019B187805B0BDE8F08F00BF06110020C2
:1053F00007110020101100200C11002008110020BE
:1054000008B501F025FAFFF703FCBDE8084001F0FC
:1054100035BA08B501F038FAFFF706FCBDE80840D8
:1054200001F058BA08B500F0C7FE01F00FFAFFF717
:10543000B1FBFFF7E5FFFFF7ECFFFFF7C1FBFAE772
:1054400007B50023014601220DF107008DF8073052
:1054500000F092F89DF8070003B05DF804FB07B573
:105460000023014602220DF10600ADF8063000F0DF
:1054700083F8BDF8060003B05DF804FB07B504220D
:10548000002301460DEB0200019300F075F801982E
:1054900003B05DF804FB07B501228DF80710014643
:1054A0000DF1070000F07EF803B05DF804FB07B5CE
:1054B0000222ADF8061001460DF1060000F072F868
:1054C00003B05DF804FB07B50422019101460DEB22
:1054D000020000F067F803B05DF804FBF8B5D31DD7
:1054E00023F0070300AFADEB030D054614466846F5
:1054F0000E4600F041F8224669462846FCF7EEFBCE
:1055000020B122463146284600F04CF8BD46F8BD91
:1055100038B50C460546FFF793FFA04205D021465B
:105520002846BDE83840FFF7B6BF38BD38B50C4651
:105530000546FFF794FFA04205D021462846BDE866
:105540003840FFF7B4BF38BD38B50C460546FFF705
:1055500095FFA04205D021462846BDE83840FFF718
:10556000B2BF38BD282200210148FCF781BC00BF32
:1055700014110020FFF7F6BF38B50D461446002180
:10558000FCF776FC2A19282A88BFC5F1280434B113
:10559000034922462944BDE83840FCF7CFBB38BD5B
:1055A000141100200B461144282988BFC3F128029A
:1055B00022B1014602481844FCF7C0BB704700BF47
:1055C00014110020FFF72EBA08B50020FFF786FD62
:1055D00000F0010008BD08B5FFF724FE4FF4C870C5
:1055E00001F017FCFFF71EFEFFF7EEFF28B1FFF7F3
:1055F000E9FFBDE8084000F05DBE08BD08B5FFF753
:10560000EAFF08BD47F61643984210B50C461BD179
:10561000FFF7CAF862790D4B72B100F0AA000028BA
:1056200015BF01220022352029201A7000F008FD44
:10563000FFF77EF9002010BD1B78002B14BF35202A
:10564000292000F017FDF3E70120F4E73C110020CA
:1056500038B505464879002800F0DC80A5F5E0451E
:10566000ABB2222B00F2BB80FFF7F6F96A4C013D8A
:105670002080212D12D8DFE805F04DBD551B1F59A4
:10568000235D692FB5336D3771973B759F417B83E0
:1056900027612B65477F8EA9B31651C5237843F048
:1056A0000103237095E0637843F00803637090E092
:1056B000237843F00203F4E7237843F00403F0E790
:1056C000237843F00803ECE7637843F00103EDE748
:1056D000637843F00203E9E7237843F01003E0E73F
:1056E000237843F02003DCE7237843F04003D8E736
:1056F000FEF768FC237843F08003D2E7237823F099
:105700000C0343F00C03CCE7637823F0030343F06E
:105710000303CBE723786FF30003C2E763786FF3EB
:10572000C303C3E723786FF34103BAE723786FF32A
:105730008203B6E723786FF3C303B2E763786FF3AE
:105740000003B3E763786FF34103AFE723786FF3A8
:105750000413A6E723786FF34513A2E723786FF3CA
:1057600086139EE7FEF72EFC23786FF3C71398E7A6
:10577000237823F00C0394E7637823F0030395E781
:105780002378C3F3800282F00102D2B262F3820373
:1057900062F3C30385E76378DA4302F0010262F340
:1057A000000362F3410381E72378C3F3801282F0A0
:1057B000010262F3861374E7FEF704FC2378C3F357
:1057C000C01282F0010262F3C7136AE70120FFF7FB
:1057D000A7F92088FFF743F9FEF7F4FB002038BD56
:1057E0000020F4E72378C3F3001282F0010262F391
:1057F000041356E72378C3F3000282F0010262F338
:1058000000034EE76378C3F3C00282F0010262F343
:10581000C3034BE70120E2E70021002000EB400337
:10582000C3EB031300EB830003B2002B07DAB3F1E1
:10583000800001D503F17F0040F30720704703F19A
:105840008000F9E7164B1B78D90707D5154B187858
:1058500040007F2820D808B3C0B270479A0703D50C
:10586000104B18788000F4E75B0703D50D4B1878D0
:10587000C000EEE70C4B1B7863B10C4A0949127863
:1058800008789342F4D210FB03F0C000B0FBF2F0B2
:1058900080B2DEE70820DFE77F20704701207047F5
:1058A00048110020720C002049110020730C0020C8
:1058B000154B1B78D90705D5144B1878800800B311
:1058C000C0B270479A0703D5104B18784008F6E726
:1058D0005B0705D50D4B18787F28F0D97F207047DE
:1058E0000B4B1B785BB10B4A08491278087893423E
:1058F00036BF10FB03F080B2B0FBF2F0ECE7012002
:10590000DEE70120704700BF48110020760C002020
:105910004A110020770C002010B5314CE278A378B2
:105920001343627913432279134305D02D4B082288
:105930001A702D4B01221A70CD2804D1FFF782FF77
:105940004042E07010BDCE2802D1FFF77BFFF8E7A0
:10595000CF2804D1FFF776FF4042A070F2E7D028AD
:1059600002D1FFF76FFFF8E7D92803D1FFF7A0FFB7
:105970002071E7E7DA2803D1FFF79AFF4042F7E703
:10598000DB2804D1FFF794FF40426071DAE7DC289E
:1059900002D1FFF78DFFF8E700F12F03DBB2072BF1
:1059A00007D8A0F1D10301209840637818436070B4
:1059B000C8E7DD2805D10D4A137843F001031370C1
:1059C000C0E7DE2804D1094A137843F00203F6E762
:1059D000DF28B7D1054A137843F00403EFE700BF8F
:1059E00042110020491100204A11002048110020D6
:1059F000364BCD2893F902200AD193F903100029E0
:105A00000CDA0021D97052B9314A0021117006E038
:105A1000CE280DD193F903100029F2DC72B11A7966
:105A20005B7913435BB2002B4FD12A4A1370704746
:105A3000CF2806D1002AF1DA00229A7093F90320C8
:105A4000E1E7D02802D1002AF6DCE7E7D92893F96C
:105A5000041004D10029E1DD00211971DEE7DA2804
:105A600002D10029DADAF7E7DB2893F9051004D12F
:105A70000029D3DA00215971D0E7DC2802D10029AE
:105A8000F8DCCBE700F12F01C9B2072907D8D138DC
:105A900001218140587820EA01005870BEE7DD28D6
:105AA00005D10D48017821F001010170B6E7DE282B
:105AB00004D10948017821F00201F6E7DF28ADD1D1
:105AC0000548017821F00401EFE7704742110020FA
:105AD000491100204A1100204811002008B500F0AB
:105AE000DDFB094BDA7899780A431CBF074A10801E
:105AF0001A795B7913431CBF054B18800248BDE837
:105B0000084000F0C5B900BF421100203E1100203E
:105B10004011002008B5062200210548FCF7A8F92D
:105B2000044A00231370044A1370044A137008BD1A
:105B300042110020491100204A1100204811002084
:105B400090F902305BB990F9033043B990F9043011
:105B50002BB990F90500003018BF012070470120D3
:105B60007047000037B55A4C062221466846FCF7BC
:105B7000E5F80023A370E370237163719DF80220A0
:105B80009DF8033013430AD0524B188800F08BFB6A
:105B9000514A13783BB35149097888422DDC9DF86E
:105BA00004209DF8053013430BD04D4B188800F0AE
:105BB0007AFB4C4A1378002B4FD04B490978884226
:105BC00055DC6946424800F08BFA18B94048FFF7A7
:105BD000B7FF08B1FFF782FF062269463C48FCF791
:105BE000ADF803B030BD4149097801EB8101B0EB5C
:105BF000410FD4DD0133137001E0FF2BFAD19DF981
:105C000002503DB1FFF71EFE002DCCBF0123FF2344
:105C10005843A0709DF903503DB1FFF713FE002DCE
:105C2000CCBF0123FF235843E07094F90200002801
:105C3000B5D094F90320002AB1D0FFF7EFFD30B1C1
:105C4000A0701046FFF7EAFD20B1E070A7E701233E
:105C5000A370F6E70123E370A1E72549097801EB7A
:105C60008101B0EB410FACDD0133137001E0FF2B7C
:105C7000FAD19DF904503DB1FFF71AFE002DCCBFBB
:105C80000123FF23584320719DF905503DB1FFF7D3
:105C90000FFE002DCCBF0123FF235843607194F900
:105CA000040000288DD094F90520002A89D0FFF740
:105CB000B5FD30B120711046FFF7B0FD20B1607125
:105CC0007FE701232371F6E70123637179E700BFC2
:105CD000421100203E11002049110020710C0020CB
:105CE000401100204A110020750C0020700C00208B
:105CF000740C0020F8B5144642799DF818701D46C2
:105D0000284B92B11C7000F0C9FA274B188004F19F
:105D10002003DBB2072B44D804F007040120A04085
:105D2000C0B2BDE8F840FDF713BF1E78A6422ED1E1
:105D30001D4B188800F0B7FAC72828D8AE4205F1E5
:105D4000200415D006F12003DBB2072B06D806F09D
:105D500007060120B040C0B2FDF703FFE3B2072BF6
:105D600006D805F0070301209840C0B2FDF7F0FE09
:105D70003846E4B2FDF7E4FE072C12D805F007051B
:105D80000120A840C0B2BDE8F840FDF7EABE04F12A
:105D90002003DBB2072B04D804F007040120A04045
:105DA000F0E7F8BD4B1100204C11002013B5A0F511
:105DB000F84018380C4606283BD8DFE800F0171EDC
:105DC0000410252C330026230093E1231A4647F6BE
:105DD0001A412046FFF78EFF002002B010BD272396
:105DE0000093E5231A4647F61B41F2E7262300936A
:105DF000E022E12347F61841EBE727230093E42252
:105E0000E52347F61941E4E726230093E222E12344
:105E100047F61C41DDE727230093E622E52347F6FA
:105E20001D41D6E728230093E522012347F61E41B2
:105E3000CFE7487918B1034B00221A70CDE7012053
:105E4000CBE700BF4B110020014B1860704700BF2B
:105E500050110020024B186808B1036818477047BA
:105E60005011002008B5FFF7F5FF08BD024B1B6875
:105E70000BB15B681847704750110020034B1B683B
:105E80001BB1062101709B68184770475011002014
:105E9000034B1B681BB102210170DB681847704778
:105EA000501100200B4B07B51A8882420ED0188083
:105EB000094B1B6853B103228DF80500000A8DF8C9
:105EC00006008DF804201B6901A8984703B05DF80F
:105ED00004FB00BF56110020501100200B4B07B5EA
:105EE0001A8882420FD01880094B1B685BB10422CC
:105EF0008DF80500000A8DF806008DF804201B6956
:105F00000DEB0200984703B05DF804FB541100202C
:105F1000501100200E4B0F4A1B68127802336AB1F1
:105F20000D4A92F90020002A08DA0C4B1B681E2249
:105F300002331A440020934202D170470622F8E748
:105F400013F8011B0029F6D00130C0B2F3E700BFFF
:105F5000640C0020780C002000210020680C002038
:105F600028B3134B1B78ABB1124B93F90030002BC5
:105F700010DAC2081D2A17D80F4B1B68134400F013
:105F800007009A78012303FA00F0024214BF184672
:105F900000207047094B1B689A1C083312F8011B3C
:105FA000814203D09A42F9D1002070470120704706
:105FB000780C002000210020680C0020640C0020D8
:105FC00030B54FF0FF33851C002215F8014B8C4291
:105FD0000ED0B3F1FF3F02D1002C08BF13460132AF
:105FE000D4B2062C62B2F0D15A1C01D01844817090
:105FF00030BD10B5831C0022083013F8014B8C42D1
:1060000008BF03F8012C8342F7D110BDCB081D2B2C
:1060100007D8184401F007030121994083781943F8
:1060200081707047CB081D2B08D8184401F0070178
:1060300001238B40817821EA0301817070470000C1
:10604000084B1B78014643B1074B93F90030002BF6
:1060500003DA064B1868FFF7D9BF054B1868FFF73E
:10606000AFBF00BF780C002000210020680C00208A
:10607000640C0020084B1B78014643B1074B93F991
:106080000030002B03DA064B1868FFF7CBBF054B37
:106090001868FFF7AEBF00BF780C00200021002079
:1060A000680C0020640C0020094B1B785BB1094B85
:1060B00093F90030002B06DA074B18681E220021E6
:1060C0000230FBF7D5BE054B06221868F7E700BF84
:1060D000780C002000210020680C0020640C0020B7
:1060E00042784B789A421DD190F902301BB191F958
:1060F00002209A4216D190F903301BB191F9032086
:106100009A420FD190F905301BB191F905209A42BE
:1061100008D190F9040030B191F90430181A18BF71
:106120000120704701207047704708B5FFF7FCFF5A
:1061300008BD000008B50028034B14BF0220012051
:106140001870FFF7F2FF08BD5811002008B5034B87
:1061500003201870FFF7E9FF08BD00BF58110020A9
:10616000FFF7E8BF08B5034B01201870FFF7DDFF0C
:1061700008BD00BF58110020FFF7F4BF70477047FB
:10618000704708B5FFF7FCFF08BD704708B5FFF77B
:10619000FCFF08BD10B5FFF7F1FFFFF743F8FFF76D
:1061A000EEFF0024E0B2FEF799FF18B901340F2C7E
:1061B000F8D110BD0120FCE708B500F0A3FEBDE852
:1061C000084000F053BC08B5FDF7E7FAAA20BDE887
:1061D000084000F01EBE08B5FEF7FCFAFEF710FB03
:1061E000FFF762FFFFF796FC0020FFF75BFE002041
:1061F000FFF774FEBDE80840FDF7D6BA302383F3FD
:106200001188064BDA69064B1A60064A00231360B0
:10621000054A136083F31188704700BF48210020AE
:10622000641100205C11002060110020FFF7E6BF20
:10623000D0B5302383F31188134B144CD969144B18
:1062400022681868891A8842124808D9A2F5E452CF
:1062500022600468104A224401F5E451026019608A
:106260000468002383F311884FF47A7042F20F76AA
:106270000027E0FB016742F21072002330463946E6
:10628000FBF74CFB2044D0BD4821002064110020C6
:106290005C11002060110020C096991908B5FFF725
:1062A000C7FF80B208BD10B50446FFF7C1FF001B51
:1062B00080B210BD08B54FF47A7000F0AAFD00BEA0
:1062C00008BD70477047000010B5084A084C1178A7
:1062D00024784B1C03F00F039C421DBF054C137028
:1062E0006054002018BF012010BD00BF30210020E5
:1062F0003121002020210020302383F31188002346
:1063000083F3118870470000F8B50F4C2346002234
:1063100043F8042F90F87B7090F8796090F87650ED
:1063200090F87A2090F8781090F8770042EA0722E7
:1063300041EA062145EA002000F0CEFA20606068BC
:10634000002818BF2046F8BD6811002090F87A1088
:1063500090F87B00064B41EA002102291A7804D10B
:10636000012A01D0062A02D15A78024B1A707047CE
:10637000AC1100209C11002010B50446052922D83C
:10638000DFE801F01D21031D1D1F302383F3118859
:106390000D4A012100F01AFE0C4A0221204600F0AD
:1063A00015FE002383F31188094B1B7813B10520D8
:1063B000FFF78AFF0220BDE81040FFF785BF0846BF
:1063C000F9E70520F7E710BDA09B0060C49B0060C3
:1063D000A511002070B50446064803680D460BB1B0
:1063E00000F092FB2B462146034A0248BDE870406C
:1063F00000F082BB84110020FD63006070B5302383
:106400000E4683F311880B78042B03D0002383F30B
:10641000118870BD154B1B78DB09F7D1144C22781D
:10642000002AF3D0134B1B78002BEFD00B899B076E
:1064300005D40823104A0121304600F019FE2478C3
:1064400042F21073A4FB034540F2E73020184FF0EE
:1064500000014FF47A724FF0000345EB0101FBF7A6
:106460005DFA31468000FFF7B5FFCFE7002100203D
:1064700080110020780C00209D110020F8B590F8C4
:10648000743003F07F02212A044640F0968013F016
:10649000800244D0002A00F0908090F87520022AF3
:1064A00038D0032A29D0012A40F0878090F878302C
:1064B00090F8790053EA00200FD0012894F8762054
:1064C00012D04D4BA3661A7094F87A3094F87B2062
:1064D00043EA0223E366002336E0484BA366082321
:1064E000E3662067012014E0022AEAD1444BA36648
:1064F0000623E366002323670BE090F8782090F8EA
:10650000791052EA012258D13E4B83660120E066A1
:106510002267F8BD3C4B83660120E066EAE790F80D
:1065200075200A2A40D00B2A10D0092A45D190F8AC
:10653000782090F8791042EA0122012A3DD8334BA5
:1065400083660223C366324B2367CBE790F878302B
:1065500090F8792053EA022322D190F87650294B03
:106560001D70EDB9284B1A78D2B1302282F3118810
:106570001E7842F21073A6FB036740F2E730301832
:106580004FF000014FF47A724FF0000347EB010126
:10659000FBF7C4F921468000FFF71CFF85F3118843
:1065A0000023A366E366CFE71A49174B0D7890F8EE
:1065B00077201A70ED09F3D1D6E703F09F03812B02
:1065C00001D00020A5E794F87530062BF9D194F896
:1065D0007920616894F878304D6894F8761043EA31
:1065E0000223204694F87720A8470028E9D0436882
:1065F000A36603686EE700BFC01100209D11002054
:10660000A6110020780C002080110020AC11002081
:106610004D6300600021002008B5102200210448CD
:10662000FBF726FC034A00231370034A137008BDCE
:10663000202100203021002031210020F8B5294DF3
:10664000294E2C4630782B78284F0021984230D1A3
:1066500001B12070F8BD2370254B01221A70254B23
:1066600093F87F10081C18BF0120FFF76FFDE9E7C2
:1066700023701F4B00221A70FFF7ADFD1D4B93F8DE
:106680007F10081C18BF0120FFF76AFDDAE72370AE
:10669000184B93F87F10081C18BF0120FFF74AFD24
:1066A000D0E7002123700846F8E72370FFF75AFD72
:1066B000C8E71A460133BA5C03F00F030121052A2B
:1066C000C4D80FF2080C5CF822F000BFAB66006083
:1066D0004D6600608F660060A366006057660060CC
:1066E000716600603121002030210020202100202F
:1066F000A5110020C421002038B50E4C23680022CB
:1067000001210546986802F0FBFC284600F034FCA5
:106710004FF4FA7000F07DFB0749284600F015FCA5
:10672000236800221146986802F0EAFC034B00221D
:106730001A6038BDC0210020E89B00608411002051
:1067400038B50B4C2368054600229868012102F0F9
:10675000D7FC284600F010FC0649284600F0F5FB5F
:106760002368002298681146BDE8384002F0C8BC92
:10677000C0210020E89B0060014B1878704700BFE3
:106780009C11002070B5302304460D46164683F355
:1067900011880F490B78042B03D0002383F3118851
:1067A00070BD01200B89A040184209D001EB840183
:1067B000CB68586964210C3000F038FB0130ECD014
:1067C00033462A462146024800F052FCE5E700BF66
:1067D000C421002010B50146044608220120FFF71D
:1067E000D1FF082221460248FBF7A8FA10BD00BFDE
:1067F0009D110020014620220220FFF7C3BF0000A8
:1068000010B50146044606220220FFF7BBFF062210
:1068100021460248FBF792FA10BD00BFA6110020E6
:10682000014603220220FFF7ADBF70477047704753
:1068300008B5FFF7FAFF00F09AFEFFF7F7FF08BD73
:1068400008B500F09CFEFFF7F2FF08BDFFF794BC0F
:1068500008B5FFF7E1FE0648FFF74EFF054B064A75
:106860001A604FF4FA70BDE8084000F0D2BA00BFD9
:10687000C4210020C81100207C0C0020014B1868A6
:10688000FFF7E2BAC811002038B5114CFFF7D6FE69
:106890002378052B1AD125462378052B05D0FEF742
:1068A00047F8BDE83840FFF719B9FFF78CFCB4F89A
:1068B0007C309B07F0D5FFF76DFC0028ECD0284614
:1068C00000F0E8FB2846FFF73BFFE5E738BD00BFD7
:1068D000C421002070470000020A032A11D006D804
:1068E000012A1ED0022A1FD00020024611E0212AD0
:1068F00011D0222AF8D1E9B10129F5D1B6200F4AE9
:1069000007E0C0B20228EFD80D4A0E4952F8202005
:10691000085C1A60704751B10129E5D109200A4A83
:10692000F7E71220094AF4E73B20094AF1E709207A
:10693000084AEEE74420084AEBE700BFF89C0060F5
:10694000F89B0060049C0060329C0060429C0060E8
:10695000079C0060199C0060549C0060024B034A35
:106960001A60034A5A6070473421002060220020D8
:1069700000000820094B30B51C684D1E22444942D6
:106980002A440A4059681044884204D8A04202D3DD
:106990001860104630BD0022FBE700BF3421002004
:1069A00008B5302383F31188FFF7E4FF002383F356
:1069B000118808BD70B5BFF34F8FBFF36F8F1B4BAE
:1069C0000021C3F85012BFF34F8FBFF36F8F5A6986
:1069D00042F400325A61BFF34F8FBFF36F8FC3F899
:1069E0008410BFF34F8FD3F88020C2F3C900C2F3E5
:1069F0004E32520143F6E07402EA0406014646EACA
:106A0000817511F1FF31C3F86052F8D2203A12F1CA
:106A1000200FF1D1BFF34F8F5A6942F480325A618F
:106A2000BFF34F8FBFF36F8F70BD00BF00ED00E06D
:106A3000FEE700000C4B70B50820002493E8260008
:106A40000439954207D8D968914209D8013803F131
:106A50001003F3D170BD51F8046F42F8046BF0E7F6
:106A600042F8044BF0E700BFB09D006038B5084C19
:106A70000123002523706560FFF770FF0549064874
:106A800000F03CF90223237085F3118838BD00BF64
:106A900040210020309E00604821002072B6034B48
:106AA000D865034B03221A70FEE700BF482100207F
:106AB00040210020034BDA68937D0BB1013B9375B5
:106AC00000F034B84821002010B50A4A13699C68C8
:106AD000A1420CD85C68816003604460206058600B
:106AE0009868411A99604FF0FF33936110BD091BFC
:106AF0001B68ECE74821002010B403610023C2604A
:106B0000436110BCFFF7E0BF036881689A680A44DC
:106B10009A60426813605A6000230360024B4FF092
:106B2000FF329A61704700BF4821002070B5124DB6
:106B3000EA6929460132EA6151F8102F8A4206D0EB
:106B40009368013B936030262C69A36803B170BD44
:106B5000226861680A605160236083F31188E368EA
:106B600021692046984786F3118861690029EBD096
:106B70002046FFF7A9FFE7E748210020002303751F
:106B8000826803691B6899689142FBD25A68036066
:106B90004260106058607047002303758268036983
:106BA0001B6899689142FBD85A6803604260106084
:106BB0005860704708B5302383F311880A7D00239D
:106BC000052A06D8DFE802F00C050503130F8A69D1
:106BD00013604FF0FF338B610846FFF7CFFF0023B0
:106BE00083F3118808BD8A699368013393604A680A
:106BF0000B6813605A60ECE7084B10B51C68D86846
:106C000022681A60536001222275DC60FFF7C4FF1E
:106C100001462046BDE81040FAF76ABE4821002030
:106C2000FFF7ACBF064BD9681422087518688A753F
:106C300002681A60536001220275D860FAF758BEE4
:106C40004821002030B50C4BDC684B1C87B0054652
:106C50000FD02346094A6846FFF74EFF2846FFF744
:106C6000E1FF009B13B16846FFF74EFFA06907B034
:106C700030BDFFF7D7FFF9E748210020B56B006072
